:1000000009C021C020C01FC01EC01DC01CC01BC015
:100010001AC019C011241FBECFE9CDBF10E0A0E661
:10002000B0E0E2EAF1E002C005900D92A236B1071D
:10003000D9F710E0A2E6B0E001C01D92A836B107E2
:10004000E1F73BD0ACC0DCCF8FE79CE00197F1F744
:1000500000C00000C59A8FE79CE00197F1F700C04F
:100060000000C598089581E080936700C59AC09804
:10007000C19A8FEB92E10197F1F700C00000C29A9C
:100080008FEF98E10197F1F700C00000C198C59883
:100090000895C59AC19A8FEB92E10197F1F700C0DC
:1000A0000000C2988FEF98E10197F1F700C00000BF
:1000B000C198C598109267000895BD9AB89AB99AE8
:1000C000BA9AC598C098C198C298BB98BC98C39A70
:1000D000C49ABADFC1E0B49911C080916700811160
:1000E000D8DFC09A809162008823A9F7C09362008C
:1000F00010926000A9DFA8DFA7DFEDCF10926200A9
:1001000080916000882319F4C09360009DDFB3994B
:1001100006C080916700882311F4A5DF06C0B39B59
:1001200004C0809167008111B4DF8091670088234B
:1001300091F6809163009091640023E0883E9207DD
:1001400039F4C09361001092640010926300C0986B
:1001500080916500909166002AE38839920739F40E
:10016000109261001092660010926500C09A809112
:100170006100882351F0809165009091660001969E
:100180009093660080936500A6CF80916300909164
:100190006400019690936400809363009CCFF89470
:0201A000FFCF8F
:0201A200010159
:00000001FF
